:020000040000FA
:06000000AEEF00F012005B
:020006000000F8
:08000800060EF66E000EF76E05
:10001000000EF86E00010900F550856F0900F550DB
:10002000866F03E1856701D03DD00900F550806FF0
:100030000900F550816F0900F550826F0900090031
:10004000F550E96E0900F550EA6E09000900090053
:10005000F550836F0900F550846F09000900F6CF51
:1000600087F0F7CF88F0F8CF89F080C0F6FF81C025
:10007000F7FF82C0F8FF0001835302E1845307E0D9
:100080000900F550EE6E8307F8E28407F9D787C0C0
:10009000F6FF88C0F7FF89C0F8FF00018507000E52
:0600A000865BBFD71200D1
:0A00A6009268936A946A956A0F0E3F
:1000B000C16E816A826A836A1200D9CFE6FFE1CFFE
:1000C000D9FF020EE126DE6ADD6ADECF02F0DDCF67
:1000D00003F0D890035004E6200E025C4E0E035845
:1000E00005E2DF2A010E01E3DB2AEFD7020EE15C15
:1000F00002E2E16AE552E16EE552E7CFD9FF120074
:10010000D9CFE6FFE1CFD9FFE652CDDFDF6ADFCFFF
:1001100002F0080EE76E0218E8AE02D0E73402D013
:10012000E750025C05E2DF50826EC7DFDF2AEFD7BF
:0C013000EDD7E552E552E7CFD9FF1200F1
:04013C00000EF36E50
:1001400000EE00F0020E01D81200EA6002D0EE6A62
:0C015000FCD7F350E9601200EE6AFCD707
:04015C0011EE00F0B0
:1001600021EE00F0F86A019C04EC00F0BCEC00F019
:0801700080EC00F0FBD7120047
:02017800120073
:020000040030CA
:0100010008F6
:0100020019E4
:010003001EDE
:010006008178
:00000001FF
